{
  "address": "0x1c961fc6c950B4F7E7B2c18c8bE642C034cE1e1d",
  "abi": [
    {
      "inputs": [],
      "stateMutability": "nonpayable",
      "type": "constructor"
    },
    {
      "anonymous": false,
      "inputs": [
        {
          "indexed": true,
          "internalType": "address",
          "name": "owner",
          "type": "address"
        },
        {
          "indexed": true,
          "internalType": "address",
          "name": "approved",
          "type": "address"
        },
        {
          "indexed": true,
          "internalType": "uint256",
          "name": "tokenId",
          "type": "uint256"
        }
      ],
      "name": "Approval",
      "type": "event"
    },
    {
      "anonymous": false,
      "inputs": [
        {
          "indexed": true,
          "internalType": "address",
          "name": "owner",
          "type": "address"
        },
        {
          "indexed": true,
          "internalType": "address",
          "name": "operator",
          "type": "address"
        },
        {
          "indexed": false,
          "internalType": "bool",
          "name": "approved",
          "type": "bool"
        }
      ],
      "name": "ApprovalForAll",
      "type": "event"
    },
    {
      "anonymous": false,
      "inputs": [
        {
          "indexed": false,
          "internalType": "uint256",
          "name": "_fromTokenId",
          "type": "uint256"
        },
        {
          "indexed": false,
          "internalType": "uint256",
          "name": "_toTokenId",
          "type": "uint256"
        }
      ],
      "name": "BatchMetadataUpdate",
      "type": "event"
    },
    {
      "anonymous": false,
      "inputs": [
        {
          "indexed": false,
          "internalType": "uint256",
          "name": "_tokenId",
          "type": "uint256"
        }
      ],
      "name": "MetadataUpdate",
      "type": "event"
    },
    {
      "anonymous": false,
      "inputs": [
        {
          "indexed": true,
          "internalType": "bytes32",
          "name": "role",
          "type": "bytes32"
        },
        {
          "indexed": true,
          "internalType": "bytes32",
          "name": "previousAdminRole",
          "type": "bytes32"
        },
        {
          "indexed": true,
          "internalType": "bytes32",
          "name": "newAdminRole",
          "type": "bytes32"
        }
      ],
      "name": "RoleAdminChanged",
      "type": "event"
    },
    {
      "anonymous": false,
      "inputs": [
        {
          "indexed": true,
          "internalType": "bytes32",
          "name": "role",
          "type": "bytes32"
        },
        {
          "indexed": true,
          "internalType": "address",
          "name": "account",
          "type": "address"
        },
        {
          "indexed": true,
          "internalType": "address",
          "name": "sender",
          "type": "address"
        }
      ],
      "name": "RoleGranted",
      "type": "event"
    },
    {
      "anonymous": false,
      "inputs": [
        {
          "indexed": true,
          "internalType": "bytes32",
          "name": "role",
          "type": "bytes32"
        },
        {
          "indexed": true,
          "internalType": "address",
          "name": "account",
          "type": "address"
        },
        {
          "indexed": true,
          "internalType": "address",
          "name": "sender",
          "type": "address"
        }
      ],
      "name": "RoleRevoked",
      "type": "event"
    },
    {
      "anonymous": false,
      "inputs": [
        {
          "indexed": true,
          "internalType": "address",
          "name": "from",
          "type": "address"
        },
        {
          "indexed": true,
          "internalType": "address",
          "name": "to",
          "type": "address"
        },
        {
          "indexed": true,
          "internalType": "uint256",
          "name": "tokenId",
          "type": "uint256"
        }
      ],
      "name": "Transfer",
      "type": "event"
    },
    {
      "inputs": [],
      "name": "DEFAULT_ADMIN_ROLE",
      "outputs": [
        {
          "internalType": "bytes32",
          "name": "",
          "type": "bytes32"
        }
      ],
      "stateMutability": "view",
      "type": "function"
    },
    {
      "inputs": [],
      "name": "MINTER_ROLE",
      "outputs": [
        {
          "internalType": "bytes32",
          "name": "",
          "type": "bytes32"
        }
      ],
      "stateMutability": "view",
      "type": "function"
    },
    {
      "inputs": [
        {
          "internalType": "address",
          "name": "to",
          "type": "address"
        },
        {
          "internalType": "uint256",
          "name": "tokenId",
          "type": "uint256"
        }
      ],
      "name": "approve",
      "outputs": [],
      "stateMutability": "nonpayable",
      "type": "function"
    },
    {
      "inputs": [
        {
          "internalType": "address",
          "name": "owner",
          "type": "address"
        }
      ],
      "name": "balanceOf",
      "outputs": [
        {
          "internalType": "uint256",
          "name": "",
          "type": "uint256"
        }
      ],
      "stateMutability": "view",
      "type": "function"
    },
    {
      "inputs": [
        {
          "internalType": "uint256",
          "name": "tokenId",
          "type": "uint256"
        }
      ],
      "name": "burn",
      "outputs": [],
      "stateMutability": "nonpayable",
      "type": "function"
    },
    {
      "inputs": [
        {
          "internalType": "uint256",
          "name": "tokenId",
          "type": "uint256"
        }
      ],
      "name": "getApproved",
      "outputs": [
        {
          "internalType": "address",
          "name": "",
          "type": "address"
        }
      ],
      "stateMutability": "view",
      "type": "function"
    },
    {
      "inputs": [
        {
          "internalType": "bytes32",
          "name": "role",
          "type": "bytes32"
        }
      ],
      "name": "getRoleAdmin",
      "outputs": [
        {
          "internalType": "bytes32",
          "name": "",
          "type": "bytes32"
        }
      ],
      "stateMutability": "view",
      "type": "function"
    },
    {
      "inputs": [
        {
          "internalType": "address",
          "name": "_rentManager",
          "type": "address"
        }
      ],
      "name": "giveRole",
      "outputs": [],
      "stateMutability": "nonpayable",
      "type": "function"
    },
    {
      "inputs": [
        {
          "internalType": "bytes32",
          "name": "role",
          "type": "bytes32"
        },
        {
          "internalType": "address",
          "name": "account",
          "type": "address"
        }
      ],
      "name": "grantRole",
      "outputs": [],
      "stateMutability": "nonpayable",
      "type": "function"
    },
    {
      "inputs": [
        {
          "internalType": "bytes32",
          "name": "role",
          "type": "bytes32"
        },
        {
          "internalType": "address",
          "name": "account",
          "type": "address"
        }
      ],
      "name": "hasRole",
      "outputs": [
        {
          "internalType": "bool",
          "name": "",
          "type": "bool"
        }
      ],
      "stateMutability": "view",
      "type": "function"
    },
    {
      "inputs": [
        {
          "internalType": "address",
          "name": "owner",
          "type": "address"
        },
        {
          "internalType": "address",
          "name": "operator",
          "type": "address"
        }
      ],
      "name": "isApprovedForAll",
      "outputs": [
        {
          "internalType": "bool",
          "name": "",
          "type": "bool"
        }
      ],
      "stateMutability": "view",
      "type": "function"
    },
    {
      "inputs": [],
      "name": "name",
      "outputs": [
        {
          "internalType": "string",
          "name": "",
          "type": "string"
        }
      ],
      "stateMutability": "view",
      "type": "function"
    },
    {
      "inputs": [
        {
          "internalType": "uint256",
          "name": "tokenId",
          "type": "uint256"
        }
      ],
      "name": "ownerOf",
      "outputs": [
        {
          "internalType": "address",
          "name": "",
          "type": "address"
        }
      ],
      "stateMutability": "view",
      "type": "function"
    },
    {
      "inputs": [
        {
          "internalType": "bytes32",
          "name": "role",
          "type": "bytes32"
        },
        {
          "internalType": "address",
          "name": "account",
          "type": "address"
        }
      ],
      "name": "renounceRole",
      "outputs": [],
      "stateMutability": "nonpayable",
      "type": "function"
    },
    {
      "inputs": [
        {
          "internalType": "bytes32",
          "name": "role",
          "type": "bytes32"
        },
        {
          "internalType": "address",
          "name": "account",
          "type": "address"
        }
      ],
      "name": "revokeRole",
      "outputs": [],
      "stateMutability": "nonpayable",
      "type": "function"
    },
    {
      "inputs": [
        {
          "internalType": "address",
          "name": "to",
          "type": "address"
        },
        {
          "internalType": "uint256",
          "name": "tokenId",
          "type": "uint256"
        },
        {
          "internalType": "string",
          "name": "_description",
          "type": "string"
        },
        {
          "internalType": "string",
          "name": "_currentOwner",
          "type": "string"
        },
        {
          "internalType": "uint256",
          "name": "_expirationDate",
          "type": "uint256"
        },
        {
          "internalType": "uint256",
          "name": "_rentPrice",
          "type": "uint256"
        }
      ],
      "name": "safeMint",
      "outputs": [],
      "stateMutability": "nonpayable",
      "type": "function"
    },
    {
      "inputs": [
        {
          "internalType": "address",
          "name": "from",
          "type": "address"
        },
        {
          "internalType": "address",
          "name": "to",
          "type": "address"
        },
        {
          "internalType": "uint256",
          "name": "tokenId",
          "type": "uint256"
        }
      ],
      "name": "safeTransferFrom",
      "outputs": [],
      "stateMutability": "nonpayable",
      "type": "function"
    },
    {
      "inputs": [
        {
          "internalType": "address",
          "name": "from",
          "type": "address"
        },
        {
          "internalType": "address",
          "name": "to",
          "type": "address"
        },
        {
          "internalType": "uint256",
          "name": "tokenId",
          "type": "uint256"
        },
        {
          "internalType": "bytes",
          "name": "data",
          "type": "bytes"
        }
      ],
      "name": "safeTransferFrom",
      "outputs": [],
      "stateMutability": "nonpayable",
      "type": "function"
    },
    {
      "inputs": [
        {
          "internalType": "address",
          "name": "operator",
          "type": "address"
        },
        {
          "internalType": "bool",
          "name": "approved",
          "type": "bool"
        }
      ],
      "name": "setApprovalForAll",
      "outputs": [],
      "stateMutability": "nonpayable",
      "type": "function"
    },
    {
      "inputs": [
        {
          "internalType": "bytes4",
          "name": "interfaceId",
          "type": "bytes4"
        }
      ],
      "name": "supportsInterface",
      "outputs": [
        {
          "internalType": "bool",
          "name": "",
          "type": "bool"
        }
      ],
      "stateMutability": "view",
      "type": "function"
    },
    {
      "inputs": [],
      "name": "symbol",
      "outputs": [
        {
          "internalType": "string",
          "name": "",
          "type": "string"
        }
      ],
      "stateMutability": "view",
      "type": "function"
    },
    {
      "inputs": [
        {
          "internalType": "uint256",
          "name": "tokenId",
          "type": "uint256"
        }
      ],
      "name": "tokenURI",
      "outputs": [
        {
          "internalType": "string",
          "name": "",
          "type": "string"
        }
      ],
      "stateMutability": "view",
      "type": "function"
    },
    {
      "inputs": [
        {
          "internalType": "address",
          "name": "from",
          "type": "address"
        },
        {
          "internalType": "address",
          "name": "to",
          "type": "address"
        },
        {
          "internalType": "uint256",
          "name": "tokenId",
          "type": "uint256"
        }
      ],
      "name": "transferFrom",
      "outputs": [],
      "stateMutability": "nonpayable",
      "type": "function"
    }
  ],
  "transactionHash": "0xdc3e1a0abd9f7d132183cec822dd68c19eaa5d6b1245c7251004126a6a628583",
  "args": [],
  "numDeployments": 1,
  "solcInputHash": "7168dfdf0e5cd2f4603a17e04427f58a",
  "bytecode": "0x60806040523480156200001157600080fd5b506040518060400160405280600a81526020017f454e532052656e74616c000000000000000000000000000000000000000000008152506040518060400160405280600481526020017f415641540000000000000000000000000000000000000000000000000000000081525081600090816200008f91906200049e565b508060019081620000a191906200049e565b505050620000b96000801b33620000bf60201b60201c565b62000585565b620000d18282620001b160201b60201c565b620001ad5760016007600084815260200190815260200160002060000160008373ffffffffffffffffffffffffffffffffffffffff1673ffffffffffffffffffffffffffffffffffffffff16815260200190815260200160002060006101000a81548160ff021916908315150217905550620001526200021c60201b60201c565b73ffffffffffffffffffffffffffffffffffffffff168173ffffffffffffffffffffffffffffffffffffffff16837f2f8788117e7eff1d82e926ec794901d17c78024a50270940304540a733656f0d60405160405180910390a45b5050565b60006007600084815260200190815260200160002060000160008373ffffffffffffffffffffffffffffffffffffffff1673ffffffffffffffffffffffffffffffffffffffff16815260200190815260200160002060009054906101000a900460ff16905092915050565b600033905090565b600081519050919050565b7f4e487b7100000000000000000000000000000000000000000000000000000000600052604160045260246000fd5b7f4e487b7100000000000000000000000000000000000000000000000000000000600052602260045260246000fd5b60006002820490506001821680620002a657607f821691505b602082108103620002bc57620002bb6200025e565b5b50919050565b60008190508160005260206000209050919050565b60006020601f8301049050919050565b600082821b905092915050565b600060088302620003267fffffffffffffffffffffffffffffffffffffffffffffffffffffffffffffffff82620002e7565b620003328683620002e7565b95508019841693508086168417925050509392505050565b6000819050919050565b6000819050919050565b60006200037f6200037962000373846200034a565b62000354565b6200034a565b9050919050565b6000819050919050565b6200039b836200035e565b620003b3620003aa8262000386565b848454620002f4565b825550505050565b600090565b620003ca620003bb565b620003d781848462000390565b505050565b5b81811015620003ff57620003f3600082620003c0565b600181019050620003dd565b5050565b601f8211156200044e576200041881620002c2565b6200042384620002d7565b8101602085101562000433578190505b6200044b6200044285620002d7565b830182620003dc565b50505b505050565b600082821c905092915050565b6000620004736000198460080262000453565b1980831691505092915050565b60006200048e838362000460565b9150826002028217905092915050565b620004a98262000224565b67ffffffffffffffff811115620004c557620004c46200022f565b5b620004d182546200028d565b620004de82828562000403565b600060209050601f83116001811462000516576000841562000501578287015190505b6200050d858262000480565b8655506200057d565b601f1984166200052686620002c2565b60005b82811015620005505784890151825560018201915060208501945060208101905062000529565b868310156200057057848901516200056c601f89168262000460565b8355505b6001600288020188555050505b505050505050565b613d1780620005956000396000f3fe608060405234801561001057600080fd5b506004361061014d5760003560e01c80636352211e116100c3578063b88d4fde1161007c578063b88d4fde146103ac578063c375110d146103c8578063c87b56dd146103e4578063d539139314610414578063d547741f14610432578063e985e9c51461044e5761014d565b80636352211e146102c457806370a08231146102f457806391d148541461032457806395d89b4114610354578063a217fddf14610372578063a22cb465146103905761014d565b8063248a9ca311610115578063248a9ca3146102085780632f2ff15d1461023857806336568abe1461025457806342842e0e1461027057806342966c681461028c5780634dfb6349146102a85761014d565b806301ffc9a71461015257806306fdde0314610182578063081812fc146101a0578063095ea7b3146101d057806323b872dd146101ec575b600080fd5b61016c60048036038101906101679190612564565b61047e565b60405161017991906125ac565b60405180910390f35b61018a610490565b6040516101979190612657565b60405180910390f35b6101ba60048036038101906101b591906126af565b610522565b6040516101c7919061271d565b60405180910390f35b6101ea60048036038101906101e59190612764565b610568565b005b610206600480360381019061020191906127a4565b61067f565b005b610222600480360381019061021d919061282d565b6106df565b60405161022f9190612869565b60405180910390f35b610252600480360381019061024d9190612884565b6106ff565b005b61026e60048036038101906102699190612884565b610720565b005b61028a600480360381019061028591906127a4565b6107a3565b005b6102a660048036038101906102a191906126af565b6107c3565b005b6102c260048036038101906102bd91906129f9565b61081f565b005b6102de60048036038101906102d991906126af565b6108a1565b6040516102eb919061271d565b60405180910390f35b61030e60048036038101906103099190612abe565b610927565b60405161031b9190612afa565b60405180910390f35b61033e60048036038101906103399190612884565b6109de565b60405161034b91906125ac565b60405180910390f35b61035c610a49565b6040516103699190612657565b60405180910390f35b61037a610adb565b6040516103879190612869565b60405180910390f35b6103aa60048036038101906103a59190612b41565b610ae2565b005b6103c660048036038101906103c19190612c22565b610af8565b005b6103e260048036038101906103dd9190612abe565b610b5a565b005b6103fe60048036038101906103f991906126af565b610b95565b60405161040b9190612657565b60405180910390f35b61041c610ba7565b6040516104299190612869565b60405180910390f35b61044c60048036038101906104479190612884565b610bcb565b005b61046860048036038101906104639190612ca5565b610bec565b60405161047591906125ac565b60405180910390f35b600061048982610c80565b9050919050565b60606000805461049f90612d14565b80601f01602080910402602001604051908101604052809291908181526020018280546104cb90612d14565b80156105185780601f106104ed57610100808354040283529160200191610518565b820191906000526020600020905b8154815290600101906020018083116104fb57829003601f168201915b5050505050905090565b600061052d82610cfa565b6004600083815260200190815260200160002060009054906101000a900473ffffffffffffffffffffffffffffffffffffffff169050919050565b6000610573826108a1565b90508073ffffffffffffffffffffffffffffffffffffffff168373ffffffffffffffffffffffffffffffffffffffff16036105e3576040517f08c379a00000000000000000000000000000000000000000000000000000000081526004016105da90612db7565b60405180910390fd5b8073ffffffffffffffffffffffffffffffffffffffff16610602610d45565b73ffffffffffffffffffffffffffffffffffffffff16148061063157506106308161062b610d45565b610bec565b5b610670576040517f08c379a000000000000000000000000000000000000000000000000000000000815260040161066790612e49565b60405180910390fd5b61067a8383610d4d565b505050565b61069061068a610d45565b82610e06565b6106cf576040517f08c379a00000000000000000000000000000000000000000000000000000000081526004016106c690612edb565b60405180910390fd5b6106da838383610e9b565b505050565b600060076000838152602001908152602001600020600101549050919050565b610708826106df565b61071181611194565b61071b83836111a8565b505050565b610728610d45565b73ffffffffffffffffffffffffffffffffffffffff168173ffffffffffffffffffffffffffffffffffffffff1614610795576040517f08c379a000000000000000000000000000000000000000000000000000000000815260040161078c90612f6d565b60405180910390fd5b61079f8282611289565b5050565b6107be83838360405180602001604052806000815250610af8565b505050565b6107d46107ce610d45565b82610e06565b610813576040517f08c379a000000000000000000000000000000000000000000000000000000000815260040161080a90612edb565b60405180910390fd5b61081c8161136b565b50565b7f9f2df0fed2c77648de5860a4cc508cd0818c85b8b8a1ab4ceeef8d981c8956a661084981611194565b6108538787611377565b6000858561086086611395565b61086986611395565b60405160200161087c94939291906131dd565b60405160208183030381529060405290506108978782611463565b5050505050505050565b6000806108ad83611507565b9050600073ffffffffffffffffffffffffffffffffffffffff168173ffffffffffffffffffffffffffffffffffffffff160361091e576040517f08c379a0000000000000000000000000000000000000000000000000000000008152600401610915906132b4565b60405180910390fd5b80915050919050565b60008073ffffffffffffffffffffffffffffffffffffffff168273ffffffffffffffffffffffffffffffffffffffff1603610997576040517f08c379a000000000000000000000000000000000000000000000000000000000815260040161098e90613346565b60405180910390fd5b600360008373ffffffffffffffffffffffffffffffffffffffff1673ffffffffffffffffffffffffffffffffffffffff168152602001908152602001600020549050919050565b60006007600084815260200190815260200160002060000160008373ffffffffffffffffffffffffffffffffffffffff1673ffffffffffffffffffffffffffffffffffffffff16815260200190815260200160002060009054906101000a900460ff16905092915050565b606060018054610a5890612d14565b80601f0160208091040260200160405190810160405280929190818152602001828054610a8490612d14565b8015610ad15780601f10610aa657610100808354040283529160200191610ad1565b820191906000526020600020905b815481529060010190602001808311610ab457829003601f168201915b5050505050905090565b6000801b81565b610af4610aed610d45565b8383611544565b5050565b610b09610b03610d45565b83610e06565b610b48576040517f08c379a0000000000000000000000000000000000000000000000000000000008152600401610b3f90612edb565b60405180910390fd5b610b54848484846116b0565b50505050565b6000801b610b6781611194565b610b917f9f2df0fed2c77648de5860a4cc508cd0818c85b8b8a1ab4ceeef8d981c8956a6836111a8565b5050565b6060610ba08261170c565b9050919050565b7f9f2df0fed2c77648de5860a4cc508cd0818c85b8b8a1ab4ceeef8d981c8956a681565b610bd4826106df565b610bdd81611194565b610be78383611289565b505050565b6000600560008473ffffffffffffffffffffffffffffffffffffffff1673ffffffffffffffffffffffffffffffffffffffff16815260200190815260200160002060008373ffffffffffffffffffffffffffffffffffffffff1673ffffffffffffffffffffffffffffffffffffffff16815260200190815260200160002060009054906101000a900460ff16905092915050565b60007f7965db0b000000000000000000000000000000000000000000000000000000007bffffffffffffffffffffffffffffffffffffffffffffffffffffffff1916827bffffffffffffffffffffffffffffffffffffffffffffffffffffffff19161480610cf35750610cf28261181e565b5b9050919050565b610d038161187f565b610d42576040517f08c379a0000000000000000000000000000000000000000000000000000000008152600401610d39906132b4565b60405180910390fd5b50565b600033905090565b816004600083815260200190815260200160002060006101000a81548173ffffffffffffffffffffffffffffffffffffffff021916908373ffffffffffffffffffffffffffffffffffffffff160217905550808273ffffffffffffffffffffffffffffffffffffffff16610dc0836108a1565b73ffffffffffffffffffffffffffffffffffffffff167f8c5be1e5ebec7d5bd14f71427d1e84f3dd0314c0f7b2291e5b200ac8c7c3b92560405160405180910390a45050565b600080610e12836108a1565b90508073ffffffffffffffffffffffffffffffffffffffff168473ffffffffffffffffffffffffffffffffffffffff161480610e545750610e538185610bec565b5b80610e9257508373ffffffffffffffffffffffffffffffffffffffff16610e7a84610522565b73ffffffffffffffffffffffffffffffffffffffff16145b91505092915050565b8273ffffffffffffffffffffffffffffffffffffffff16610ebb826108a1565b73ffffffffffffffffffffffffffffffffffffffff1614610f11576040517f08c379a0000000000000000000000000000000000000000000000000000000008152600401610f08906133d8565b60405180910390fd5b600073ffffffffffffffffffffffffffffffffffffffff168273ffffffffffffffffffffffffffffffffffffffff1603610f80576040517f08c379a0000000000000000000000000000000000000000000000000000000008152600401610f779061346a565b60405180910390fd5b610f8d83838360016118c0565b8273ffffffffffffffffffffffffffffffffffffffff16610fad826108a1565b73ffffffffffffffffffffffffffffffffffffffff1614611003576040517f08c379a0000000000000000000000000000000000000000000000000000000008152600401610ffa906133d8565b60405180910390fd5b6004600082815260200190815260200160002060006101000a81549073ffffffffffffffffffffffffffffffffffffffff02191690556001600360008573ffffffffffffffffffffffffffffffffffffffff1673ffffffffffffffffffffffffffffffffffffffff168152602001908152602001600020600082825403925050819055506001600360008473ffffffffffffffffffffffffffffffffffffffff1673ffffffffffffffffffffffffffffffffffffffff16815260200190815260200160002060008282540192505081905550816002600083815260200190815260200160002060006101000a81548173ffffffffffffffffffffffffffffffffffffffff021916908373ffffffffffffffffffffffffffffffffffffffff160217905550808273ffffffffffffffffffffffffffffffffffffffff168473ffffffffffffffffffffffffffffffffffffffff167fddf252ad1be2c89b69c2b068fc378daa952ba7f163c4a11628f55a4df523b3ef60405160405180910390a461118f83838360016118c6565b505050565b6111a5816111a0610d45565b6118cc565b50565b6111b282826109de565b6112855760016007600084815260200190815260200160002060000160008373ffffffffffffffffffffffffffffffffffffffff1673ffffffffffffffffffffffffffffffffffffffff16815260200190815260200160002060006101000a81548160ff02191690831515021790555061122a610d45565b73ffffffffffffffffffffffffffffffffffffffff168173ffffffffffffffffffffffffffffffffffffffff16837f2f8788117e7eff1d82e926ec794901d17c78024a50270940304540a733656f0d60405160405180910390a45b5050565b61129382826109de565b156113675760006007600084815260200190815260200160002060000160008373ffffffffffffffffffffffffffffffffffffffff1673ffffffffffffffffffffffffffffffffffffffff16815260200190815260200160002060006101000a81548160ff02191690831515021790555061130c610d45565b73ffffffffffffffffffffffffffffffffffffffff168173ffffffffffffffffffffffffffffffffffffffff16837ff6391f5c32d9c69d2a47ea670b442974b53935d1edc7fd64eb21e047a839171b60405160405180910390a45b5050565b61137481611951565b50565b6113918282604051806020016040528060008152506119a4565b5050565b6060600060016113a4846119ff565b01905060008167ffffffffffffffff8111156113c3576113c26128ce565b5b6040519080825280601f01601f1916602001820160405280156113f55781602001600182028036833780820191505090505b509050600082602001820190505b600115611458578080600190039150507f3031323334353637383961626364656600000000000000000000000000000000600a86061a8153600a858161144c5761144b61348a565b5b04945060008503611403575b819350505050919050565b61146c8261187f565b6114ab576040517f08c379a00000000000000000000000000000000000000000000000000000000081526004016114a29061352b565b60405180910390fd5b806006600084815260200190815260200160002090816114cb91906136f7565b507ff8e1a15aba9398e019f0b49df1a4fde98ee17ae345cb5f6b5e2c27f5033e8ce7826040516114fb9190612afa565b60405180910390a15050565b60006002600083815260200190815260200160002060009054906101000a900473ffffffffffffffffffffffffffffffffffffffff169050919050565b8173ffffffffffffffffffffffffffffffffffffffff168373ffffffffffffffffffffffffffffffffffffffff16036115b2576040517f08c379a00000000000000000000000000000000000000000000000000000000081526004016115a990613815565b60405180910390fd5b80600560008573ffffffffffffffffffffffffffffffffffffffff1673ffffffffffffffffffffffffffffffffffffffff16815260200190815260200160002060008473ffffffffffffffffffffffffffffffffffffffff1673ffffffffffffffffffffffffffffffffffffffff16815260200190815260200160002060006101000a81548160ff0219169083151502179055508173ffffffffffffffffffffffffffffffffffffffff168373ffffffffffffffffffffffffffffffffffffffff167f17307eab39ab6107e8899845ad3d59bd9653f200f220920489ca2b5937696c31836040516116a391906125ac565b60405180910390a3505050565b6116bb848484610e9b565b6116c784848484611b52565b611706576040517f08c379a00000000000000000000000000000000000000000000000000000000081526004016116fd906138a7565b60405180910390fd5b50505050565b606061171782610cfa565b600060066000848152602001908152602001600020805461173790612d14565b80601f016020809104026020016040519081016040528092919081815260200182805461176390612d14565b80156117b05780601f10611785576101008083540402835291602001916117b0565b820191906000526020600020905b81548152906001019060200180831161179357829003601f168201915b5050505050905060006117c1611cd9565b905060008151036117d6578192505050611819565b60008251111561180b5780826040516020016117f39291906138c7565b60405160208183030381529060405292505050611819565b61181484611cf0565b925050505b919050565b6000634906490660e01b7bffffffffffffffffffffffffffffffffffffffffffffffffffffffff1916827bffffffffffffffffffffffffffffffffffffffffffffffffffffffff19161480611878575061187782611d58565b5b9050919050565b60008073ffffffffffffffffffffffffffffffffffffffff166118a183611507565b73ffffffffffffffffffffffffffffffffffffffff1614159050919050565b50505050565b50505050565b6118d682826109de565b61194d576118e381611e3a565b6118f18360001c6020611e67565b604051602001611902929190613983565b6040516020818303038152906040526040517f08c379a00000000000000000000000000000000000000000000000000000000081526004016119449190612657565b60405180910390fd5b5050565b61195a816120a3565b600060066000838152602001908152602001600020805461197a90612d14565b9050146119a1576006600082815260200190815260200160002060006119a0919061249b565b5b50565b6119ae83836121f1565b6119bb6000848484611b52565b6119fa576040517f08c379a00000000000000000000000000000000000000000000000000000000081526004016119f1906138a7565b60405180910390fd5b505050565b600080600090507a184f03e93ff9f4daa797ed6e38ed64bf6a1f0100000000000000008310611a5d577a184f03e93ff9f4daa797ed6e38ed64bf6a1f0100000000000000008381611a5357611a5261348a565b5b0492506040810190505b6d04ee2d6d415b85acef81000000008310611a9a576d04ee2d6d415b85acef81000000008381611a9057611a8f61348a565b5b0492506020810190505b662386f26fc100008310611ac957662386f26fc100008381611abf57611abe61348a565b5b0492506010810190505b6305f5e1008310611af2576305f5e1008381611ae857611ae761348a565b5b0492506008810190505b6127108310611b17576127108381611b0d57611b0c61348a565b5b0492506004810190505b60648310611b3a5760648381611b3057611b2f61348a565b5b0492506002810190505b600a8310611b49576001810190505b80915050919050565b6000611b738473ffffffffffffffffffffffffffffffffffffffff1661240e565b15611ccc578373ffffffffffffffffffffffffffffffffffffffff1663150b7a02611b9c610d45565b8786866040518563ffffffff1660e01b8152600401611bbe9493929190613a12565b6020604051808303816000875af1925050508015611bfa57506040513d601f19601f82011682018060405250810190611bf79190613a73565b60015b611c7c573d8060008114611c2a576040519150601f19603f3d011682016040523d82523d6000602084013e611c2f565b606091505b506000815103611c74576040517f08c379a0000000000000000000000000000000000000000000000000000000008152600401611c6b906138a7565b60405180910390fd5b805181602001fd5b63150b7a0260e01b7bffffffffffffffffffffffffffffffffffffffffffffffffffffffff1916817bffffffffffffffffffffffffffffffffffffffffffffffffffffffff191614915050611cd1565b600190505b949350505050565b606060405180602001604052806000815250905090565b6060611cfb82610cfa565b6000611d05611cd9565b90506000815111611d255760405180602001604052806000815250611d50565b80611d2f84611395565b604051602001611d409291906138c7565b6040516020818303038152906040525b915050919050565b60007f80ac58cd000000000000000000000000000000000000000000000000000000007bffffffffffffffffffffffffffffffffffffffffffffffffffffffff1916827bffffffffffffffffffffffffffffffffffffffffffffffffffffffff19161480611e2357507f5b5e139f000000000000000000000000000000000000000000000000000000007bffffffffffffffffffffffffffffffffffffffffffffffffffffffff1916827bffffffffffffffffffffffffffffffffffffffffffffffffffffffff1916145b80611e335750611e3282612431565b5b9050919050565b6060611e608273ffffffffffffffffffffffffffffffffffffffff16601460ff16611e67565b9050919050565b606060006002836002611e7a9190613acf565b611e849190613b11565b67ffffffffffffffff811115611e9d57611e9c6128ce565b5b6040519080825280601f01601f191660200182016040528015611ecf5781602001600182028036833780820191505090505b5090507f300000000000000000000000000000000000000000000000000000000000000081600081518110611f0757611f06613b45565b5b60200101907effffffffffffffffffffffffffffffffffffffffffffffffffffffffffffff1916908160001a9053507f780000000000000000000000000000000000000000000000000000000000000081600181518110611f6b57611f6a613b45565b5b60200101907effffffffffffffffffffffffffffffffffffffffffffffffffffffffffffff1916908160001a90535060006001846002611fab9190613acf565b611fb59190613b11565b90505b6001811115612055577f3031323334353637383961626364656600000000000000000000000000000000600f861660108110611ff757611ff6613b45565b5b1a60f81b82828151811061200e5761200d613b45565b5b60200101907effffffffffffffffffffffffffffffffffffffffffffffffffffffffffffff1916908160001a905350600485901c94508061204e90613b74565b9050611fb8565b5060008414612099576040517f08c379a000000000000000000000000000000000000000000000000000000000815260040161209090613be9565b60405180910390fd5b8091505092915050565b60006120ae826108a1565b90506120be8160008460016118c0565b6120c7826108a1565b90506004600083815260200190815260200160002060006101000a81549073ffffffffffffffffffffffffffffffffffffffff02191690556001600360008373ffffffffffffffffffffffffffffffffffffffff1673ffffffffffffffffffffffffffffffffffffffff168152602001908152602001600020600082825403925050819055506002600083815260200190815260200160002060006101000a81549073ffffffffffffffffffffffffffffffffffffffff021916905581600073ffffffffffffffffffffffffffffffffffffffff168273ffffffffffffffffffffffffffffffffffffffff167fddf252ad1be2c89b69c2b068fc378daa952ba7f163c4a11628f55a4df523b3ef60405160405180910390a46121ed8160008460016118c6565b5050565b600073ffffffffffffffffffffffffffffffffffffffff168273ffffffffffffffffffffffffffffffffffffffff1603612260576040517f08c379a000000000000000000000000000000000000000000000000000000000815260040161225790613c55565b60405180910390fd5b6122698161187f565b156122a9576040517f08c379a00000000000000000000000000000000000000000000000000000000081526004016122a090613cc1565b60405180910390fd5b6122b76000838360016118c0565b6122c08161187f565b15612300576040517f08c379a00000000000000000000000000000000000000000000000000000000081526004016122f790613cc1565b60405180910390fd5b6001600360008473ffffffffffffffffffffffffffffffffffffffff1673ffffffffffffffffffffffffffffffffffffffff16815260200190815260200160002060008282540192505081905550816002600083815260200190815260200160002060006101000a81548173ffffffffffffffffffffffffffffffffffffffff021916908373ffffffffffffffffffffffffffffffffffffffff160217905550808273ffffffffffffffffffffffffffffffffffffffff16600073ffffffffffffffffffffffffffffffffffffffff167fddf252ad1be2c89b69c2b068fc378daa952ba7f163c4a11628f55a4df523b3ef60405160405180910390a461240a6000838360016118c6565b5050565b6000808273ffffffffffffffffffffffffffffffffffffffff163b119050919050565b60007f01ffc9a7000000000000000000000000000000000000000000000000000000007bffffffffffffffffffffffffffffffffffffffffffffffffffffffff1916827bffffffffffffffffffffffffffffffffffffffffffffffffffffffff1916149050919050565b5080546124a790612d14565b6000825580601f106124b957506124d8565b601f0160209004906000526020600020908101906124d791906124db565b5b50565b5b808211156124f45760008160009055506001016124dc565b5090565b6000604051905090565b600080fd5b600080fd5b60007fffffffff0000000000000000000000000000000000000000000000000000000082169050919050565b6125418161250c565b811461254c57600080fd5b50565b60008135905061255e81612538565b92915050565b60006020828403121561257a57612579612502565b5b60006125888482850161254f565b91505092915050565b60008115159050919050565b6125a681612591565b82525050565b60006020820190506125c1600083018461259d565b92915050565b600081519050919050565b600082825260208201905092915050565b60005b838110156126015780820151818401526020810190506125e6565b60008484015250505050565b6000601f19601f8301169050919050565b6000612629826125c7565b61263381856125d2565b93506126438185602086016125e3565b61264c8161260d565b840191505092915050565b60006020820190508181036000830152612671818461261e565b905092915050565b6000819050919050565b61268c81612679565b811461269757600080fd5b50565b6000813590506126a981612683565b92915050565b6000602082840312156126c5576126c4612502565b5b60006126d38482850161269a565b91505092915050565b600073ffffffffffffffffffffffffffffffffffffffff82169050919050565b6000612707826126dc565b9050919050565b612717816126fc565b82525050565b6000602082019050612732600083018461270e565b92915050565b612741816126fc565b811461274c57600080fd5b50565b60008135905061275e81612738565b92915050565b6000806040838503121561277b5761277a612502565b5b60006127898582860161274f565b925050602061279a8582860161269a565b9150509250929050565b6000806000606084860312156127bd576127bc612502565b5b60006127cb8682870161274f565b93505060206127dc8682870161274f565b92505060406127ed8682870161269a565b9150509250925092565b6000819050919050565b61280a816127f7565b811461281557600080fd5b50565b60008135905061282781612801565b92915050565b60006020828403121561284357612842612502565b5b600061285184828501612818565b91505092915050565b612863816127f7565b82525050565b600060208201905061287e600083018461285a565b92915050565b6000806040838503121561289b5761289a612502565b5b60006128a985828601612818565b92505060206128ba8582860161274f565b9150509250929050565b600080fd5b600080fd5b7f4e487b7100000000000000000000000000000000000000000000000000000000600052604160045260246000fd5b6129068261260d565b810181811067ffffffffffffffff82111715612925576129246128ce565b5b80604052505050565b60006129386124f8565b905061294482826128fd565b919050565b600067ffffffffffffffff821115612964576129636128ce565b5b61296d8261260d565b9050602081019050919050565b82818337600083830152505050565b600061299c61299784612949565b61292e565b9050828152602081018484840111156129b8576129b76128c9565b5b6129c384828561297a565b509392505050565b600082601f8301126129e0576129df6128c4565b5b81356129f0848260208601612989565b91505092915050565b60008060008060008060c08789031215612a1657612a15612502565b5b6000612a2489828a0161274f565b9650506020612a3589828a0161269a565b955050604087013567ffffffffffffffff811115612a5657612a55612507565b5b612a6289828a016129cb565b945050606087013567ffffffffffffffff811115612a8357612a82612507565b5b612a8f89828a016129cb565b9350506080612aa089828a0161269a565b92505060a0612ab189828a0161269a565b9150509295509295509295565b600060208284031215612ad457612ad3612502565b5b6000612ae28482850161274f565b91505092915050565b612af481612679565b82525050565b6000602082019050612b0f6000830184612aeb565b92915050565b612b1e81612591565b8114612b2957600080fd5b50565b600081359050612b3b81612b15565b92915050565b60008060408385031215612b5857612b57612502565b5b6000612b668582860161274f565b9250506020612b7785828601612b2c565b9150509250929050565b600067ffffffffffffffff821115612b9c57612b9b6128ce565b5b612ba58261260d565b9050602081019050919050565b6000612bc5612bc084612b81565b61292e565b905082815260208101848484011115612be157612be06128c9565b5b612bec84828561297a565b509392505050565b600082601f830112612c0957612c086128c4565b5b8135612c19848260208601612bb2565b91505092915050565b60008060008060808587031215612c3c57612c3b612502565b5b6000612c4a8782880161274f565b9450506020612c5b8782880161274f565b9350506040612c6c8782880161269a565b925050606085013567ffffffffffffffff811115612c8d57612c8c612507565b5b612c9987828801612bf4565b91505092959194509250565b60008060408385031215612cbc57612cbb612502565b5b6000612cca8582860161274f565b9250506020612cdb8582860161274f565b9150509250929050565b7f4e487b7100000000000000000000000000000000000000000000000000000000600052602260045260246000fd5b60006002820490506001821680612d2c57607f821691505b602082108103612d3f57612d3e612ce5565b5b50919050565b7f4552433732313a20617070726f76616c20746f2063757272656e74206f776e6560008201527f7200000000000000000000000000000000000000000000000000000000000000602082015250565b6000612da16021836125d2565b9150612dac82612d45565b604082019050919050565b60006020820190508181036000830152612dd081612d94565b9050919050565b7f4552433732313a20617070726f76652063616c6c6572206973206e6f7420746f60008201527f6b656e206f776e6572206f7220617070726f76656420666f7220616c6c000000602082015250565b6000612e33603d836125d2565b9150612e3e82612dd7565b604082019050919050565b60006020820190508181036000830152612e6281612e26565b9050919050565b7f4552433732313a2063616c6c6572206973206e6f7420746f6b656e206f776e6560008201527f72206f7220617070726f76656400000000000000000000000000000000000000602082015250565b6000612ec5602d836125d2565b9150612ed082612e69565b604082019050919050565b60006020820190508181036000830152612ef481612eb8565b9050919050565b7f416363657373436f6e74726f6c3a2063616e206f6e6c792072656e6f756e636560008201527f20726f6c657320666f722073656c660000000000000000000000000000000000602082015250565b6000612f57602f836125d2565b9150612f6282612efb565b604082019050919050565b60006020820190508181036000830152612f8681612f4a565b9050919050565b600081905092915050565b7f7b226e616d65223a220000000000000000000000000000000000000000000000600082015250565b6000612fce600983612f8d565b9150612fd982612f98565b600982019050919050565b7f4c656e6465724e46540000000000000000000000000000000000000000000000600082015250565b600061301a600983612f8d565b915061302582612fe4565b600982019050919050565b7f222c20226465736372697074696f6e223a220000000000000000000000000000600082015250565b6000613066601283612f8d565b915061307182613030565b601282019050919050565b6000613087826125c7565b6130918185612f8d565b93506130a18185602086016125e3565b80840191505092915050565b7f222c202263757272656e744f776e6572223a2200000000000000000000000000600082015250565b60006130e3601383612f8d565b91506130ee826130ad565b601382019050919050565b7f222c202265787069726174696f6e44617465223a220000000000000000000000600082015250565b600061312f601583612f8d565b915061313a826130f9565b601582019050919050565b7f222c202272656e74616c5072696365223a220000000000000000000000000000600082015250565b600061317b601283612f8d565b915061318682613145565b601282019050919050565b7f227d000000000000000000000000000000000000000000000000000000000000600082015250565b60006131c7600283612f8d565b91506131d282613191565b600282019050919050565b60006131e882612fc1565b91506131f38261300d565b91506131fe82613059565b915061320a828761307c565b9150613215826130d6565b9150613221828661307c565b915061322c82613122565b9150613238828561307c565b91506132438261316e565b915061324f828461307c565b915061325a826131ba565b915081905095945050505050565b7f4552433732313a20696e76616c696420746f6b656e2049440000000000000000600082015250565b600061329e6018836125d2565b91506132a982613268565b602082019050919050565b600060208201905081810360008301526132cd81613291565b9050919050565b7f4552433732313a2061646472657373207a65726f206973206e6f74206120766160008201527f6c6964206f776e65720000000000000000000000000000000000000000000000602082015250565b60006133306029836125d2565b915061333b826132d4565b604082019050919050565b6000602082019050818103600083015261335f81613323565b9050919050565b7f4552433732313a207472616e736665722066726f6d20696e636f72726563742060008201527f6f776e6572000000000000000000000000000000000000000000000000000000602082015250565b60006133c26025836125d2565b91506133cd82613366565b604082019050919050565b600060208201905081810360008301526133f1816133b5565b9050919050565b7f4552433732313a207472616e7366657220746f20746865207a65726f2061646460008201527f7265737300000000000000000000000000000000000000000000000000000000602082015250565b60006134546024836125d2565b915061345f826133f8565b604082019050919050565b6000602082019050818103600083015261348381613447565b9050919050565b7f4e487b7100000000000000000000000000000000000000000000000000000000600052601260045260246000fd5b7f45524337323155524953746f726167653a2055524920736574206f66206e6f6e60008201527f6578697374656e7420746f6b656e000000000000000000000000000000000000602082015250565b6000613515602e836125d2565b9150613520826134b9565b604082019050919050565b6000602082019050818103600083015261354481613508565b9050919050565b60008190508160005260206000209050919050565b60006020601f8301049050919050565b600082821b905092915050565b6000600883026135ad7fffffffffffffffffffffffffffffffffffffffffffffffffffffffffffffffff82613570565b6135b78683613570565b95508019841693508086168417925050509392505050565b6000819050919050565b60006135f46135ef6135ea84612679565b6135cf565b612679565b9050919050565b6000819050919050565b61360e836135d9565b61362261361a826135fb565b84845461357d565b825550505050565b600090565b61363761362a565b613642818484613605565b505050565b5b818110156136665761365b60008261362f565b600181019050613648565b5050565b601f8211156136ab5761367c8161354b565b61368584613560565b81016020851015613694578190505b6136a86136a085613560565b830182613647565b50505b505050565b600082821c905092915050565b60006136ce600019846008026136b0565b1980831691505092915050565b60006136e783836136bd565b9150826002028217905092915050565b613700826125c7565b67ffffffffffffffff811115613719576137186128ce565b5b6137238254612d14565b61372e82828561366a565b600060209050601f831160018114613761576000841561374f578287015190505b61375985826136db565b8655506137c1565b601f19841661376f8661354b565b60005b8281101561379757848901518255600182019150602085019450602081019050613772565b868310156137b457848901516137b0601f8916826136bd565b8355505b6001600288020188555050505b505050505050565b7f4552433732313a20617070726f766520746f2063616c6c657200000000000000600082015250565b60006137ff6019836125d2565b915061380a826137c9565b602082019050919050565b6000602082019050818103600083015261382e816137f2565b9050919050565b7f4552433732313a207472616e7366657220746f206e6f6e20455243373231526560008201527f63656976657220696d706c656d656e7465720000000000000000000000000000602082015250565b60006138916032836125d2565b915061389c82613835565b604082019050919050565b600060208201905081810360008301526138c081613884565b9050919050565b60006138d3828561307c565b91506138df828461307c565b91508190509392505050565b7f416363657373436f6e74726f6c3a206163636f756e7420000000000000000000600082015250565b6000613921601783612f8d565b915061392c826138eb565b601782019050919050565b7f206973206d697373696e6720726f6c6520000000000000000000000000000000600082015250565b600061396d601183612f8d565b915061397882613937565b601182019050919050565b600061398e82613914565b915061399a828561307c565b91506139a582613960565b91506139b1828461307c565b91508190509392505050565b600081519050919050565b600082825260208201905092915050565b60006139e4826139bd565b6139ee81856139c8565b93506139fe8185602086016125e3565b613a078161260d565b840191505092915050565b6000608082019050613a27600083018761270e565b613a34602083018661270e565b613a416040830185612aeb565b8181036060830152613a5381846139d9565b905095945050505050565b600081519050613a6d81612538565b92915050565b600060208284031215613a8957613a88612502565b5b6000613a9784828501613a5e565b91505092915050565b7f4e487b7100000000000000000000000000000000000000000000000000000000600052601160045260246000fd5b6000613ada82612679565b9150613ae583612679565b9250828202613af381612679565b91508282048414831517613b0a57613b09613aa0565b5b5092915050565b6000613b1c82612679565b9150613b2783612679565b9250828201905080821115613b3f57613b3e613aa0565b5b92915050565b7f4e487b7100000000000000000000000000000000000000000000000000000000600052603260045260246000fd5b6000613b7f82612679565b915060008203613b9257613b91613aa0565b5b600182039050919050565b7f537472696e67733a20686578206c656e67746820696e73756666696369656e74600082015250565b6000613bd36020836125d2565b9150613bde82613b9d565b602082019050919050565b60006020820190508181036000830152613c0281613bc6565b9050919050565b7f4552433732313a206d696e7420746f20746865207a65726f2061646472657373600082015250565b6000613c3f6020836125d2565b9150613c4a82613c09565b602082019050919050565b60006020820190508181036000830152613c6e81613c32565b9050919050565b7f4552433732313a20746f6b656e20616c7265616479206d696e74656400000000600082015250565b6000613cab601c836125d2565b9150613cb682613c75565b602082019050919050565b60006020820190508181036000830152613cda81613c9e565b905091905056fea2646970667358221220f53227cece40375340df96f2541853c601e941baa66d7940113515c18a6f3ca064736f6c63430008110033",
  "devdoc": {
    "kind": "dev",
    "methods": {
      "approve(address,uint256)": {
        "details": "See {IERC721-approve}."
      },
      "balanceOf(address)": {
        "details": "See {IERC721-balanceOf}."
      },
      "burn(uint256)": {
        "details": "Burns `tokenId`. See {ERC721-_burn}. Requirements: - The caller must own `tokenId` or be an approved operator."
      },
      "getApproved(uint256)": {
        "details": "See {IERC721-getApproved}."
      },
      "getRoleAdmin(bytes32)": {
        "details": "Returns the admin role that controls `role`. See {grantRole} and {revokeRole}. To change a role's admin, use {_setRoleAdmin}."
      },
      "grantRole(bytes32,address)": {
        "details": "Grants `role` to `account`. If `account` had not been already granted `role`, emits a {RoleGranted} event. Requirements: - the caller must have ``role``'s admin role. May emit a {RoleGranted} event."
      },
      "hasRole(bytes32,address)": {
        "details": "Returns `true` if `account` has been granted `role`."
      },
      "isApprovedForAll(address,address)": {
        "details": "See {IERC721-isApprovedForAll}."
      },
      "name()": {
        "details": "See {IERC721Metadata-name}."
      },
      "ownerOf(uint256)": {
        "details": "See {IERC721-ownerOf}."
      },
      "renounceRole(bytes32,address)": {
        "details": "Revokes `role` from the calling account. Roles are often managed via {grantRole} and {revokeRole}: this function's purpose is to provide a mechanism for accounts to lose their privileges if they are compromised (such as when a trusted device is misplaced). If the calling account had been revoked `role`, emits a {RoleRevoked} event. Requirements: - the caller must be `account`. May emit a {RoleRevoked} event."
      },
      "revokeRole(bytes32,address)": {
        "details": "Revokes `role` from `account`. If `account` had been granted `role`, emits a {RoleRevoked} event. Requirements: - the caller must have ``role``'s admin role. May emit a {RoleRevoked} event."
      },
      "safeTransferFrom(address,address,uint256)": {
        "details": "See {IERC721-safeTransferFrom}."
      },
      "safeTransferFrom(address,address,uint256,bytes)": {
        "details": "See {IERC721-safeTransferFrom}."
      },
      "setApprovalForAll(address,bool)": {
        "details": "See {IERC721-setApprovalForAll}."
      },
      "symbol()": {
        "details": "See {IERC721Metadata-symbol}."
      },
      "transferFrom(address,address,uint256)": {
        "details": "See {IERC721-transferFrom}."
      }
    },
    "version": 1
  },
  "userdoc": {
    "kind": "user",
    "methods": {},
    "version": 1
  },
  "storageLayout": {
    "storage": [
      {
        "astId": 1154,
        "contract": "contracts/ENS_NFT.sol:ENSRentalNFT",
        "label": "_name",
        "offset": 0,
        "slot": "0",
        "type": "t_string_storage"
      },
      {
        "astId": 1156,
        "contract": "contracts/ENS_NFT.sol:ENSRentalNFT",
        "label": "_symbol",
        "offset": 0,
        "slot": "1",
        "type": "t_string_storage"
      },
      {
        "astId": 1160,
        "contract": "contracts/ENS_NFT.sol:ENSRentalNFT",
        "label": "_owners",
        "offset": 0,
        "slot": "2",
        "type": "t_mapping(t_uint256,t_address)"
      },
      {
        "astId": 1164,
        "contract": "contracts/ENS_NFT.sol:ENSRentalNFT",
        "label": "_balances",
        "offset": 0,
        "slot": "3",
        "type": "t_mapping(t_address,t_uint256)"
      },
      {
        "astId": 1168,
        "contract": "contracts/ENS_NFT.sol:ENSRentalNFT",
        "label": "_tokenApprovals",
        "offset": 0,
        "slot": "4",
        "type": "t_mapping(t_uint256,t_address)"
      },
      {
        "astId": 1174,
        "contract": "contracts/ENS_NFT.sol:ENSRentalNFT",
        "label": "_operatorApprovals",
        "offset": 0,
        "slot": "5",
        "type": "t_mapping(t_address,t_mapping(t_address,t_bool))"
      },
      {
        "astId": 2235,
        "contract": "contracts/ENS_NFT.sol:ENSRentalNFT",
        "label": "_tokenURIs",
        "offset": 0,
        "slot": "6",
        "type": "t_mapping(t_uint256,t_string_storage)"
      },
      {
        "astId": 623,
        "contract": "contracts/ENS_NFT.sol:ENSRentalNFT",
        "label": "_roles",
        "offset": 0,
        "slot": "7",
        "type": "t_mapping(t_bytes32,t_struct(RoleData)618_storage)"
      }
    ],
    "types": {
      "t_address": {
        "encoding": "inplace",
        "label": "address",
        "numberOfBytes": "20"
      },
      "t_bool": {
        "encoding": "inplace",
        "label": "bool",
        "numberOfBytes": "1"
      },
      "t_bytes32": {
        "encoding": "inplace",
        "label": "bytes32",
        "numberOfBytes": "32"
      },
      "t_mapping(t_address,t_bool)": {
        "encoding": "mapping",
        "key": "t_address",
        "label": "mapping(address => bool)",
        "numberOfBytes": "32",
        "value": "t_bool"
      },
      "t_mapping(t_address,t_mapping(t_address,t_bool))": {
        "encoding": "mapping",
        "key": "t_address",
        "label": "mapping(address => mapping(address => bool))",
        "numberOfBytes": "32",
        "value": "t_mapping(t_address,t_bool)"
      },
      "t_mapping(t_address,t_uint256)": {
        "encoding": "mapping",
        "key": "t_address",
        "label": "mapping(address => uint256)",
        "numberOfBytes": "32",
        "value": "t_uint256"
      },
      "t_mapping(t_bytes32,t_struct(RoleData)618_storage)": {
        "encoding": "mapping",
        "key": "t_bytes32",
        "label": "mapping(bytes32 => struct AccessControl.RoleData)",
        "numberOfBytes": "32",
        "value": "t_struct(RoleData)618_storage"
      },
      "t_mapping(t_uint256,t_address)": {
        "encoding": "mapping",
        "key": "t_uint256",
        "label": "mapping(uint256 => address)",
        "numberOfBytes": "32",
        "value": "t_address"
      },
      "t_mapping(t_uint256,t_string_storage)": {
        "encoding": "mapping",
        "key": "t_uint256",
        "label": "mapping(uint256 => string)",
        "numberOfBytes": "32",
        "value": "t_string_storage"
      },
      "t_string_storage": {
        "encoding": "bytes",
        "label": "string",
        "numberOfBytes": "32"
      },
      "t_struct(RoleData)618_storage": {
        "encoding": "inplace",
        "label": "struct AccessControl.RoleData",
        "members": [
          {
            "astId": 615,
            "contract": "contracts/ENS_NFT.sol:ENSRentalNFT",
            "label": "members",
            "offset": 0,
            "slot": "0",
            "type": "t_mapping(t_address,t_bool)"
          },
          {
            "astId": 617,
            "contract": "contracts/ENS_NFT.sol:ENSRentalNFT",
            "label": "adminRole",
            "offset": 0,
            "slot": "1",
            "type": "t_bytes32"
          }
        ],
        "numberOfBytes": "64"
      },
      "t_uint256": {
        "encoding": "inplace",
        "label": "uint256",
        "numberOfBytes": "32"
      }
    }
  }
}